:1000000061C0000084C0000082C0000080C0000009
:100010007EC000007CC000007AC0000078C00000F4
:1000200076C0000074C0000072C0000070C0000004
:100030006EC000006CC000006AC0000068C0000014
:10004000CCC3000064C0000007C2000046C200002C
:100050005EC000005CC000005AC0000058C0000034
:1000600056C0000054C0000000000007000201005C
:100070000003040600000000000000000102040864
:100080001020408001020408102001020408102002
:10009000040404040404040402020202020203032E
:1000A00003030303000000002300260029000000D2
:1000B0000000250028002B0000000000240027007D
:1000C0002A00270311241FBECFEFD8E0DEBFCDBF2B
:1000D00011E0A0E0B1E0E4E4FBE002C005900D9285
:1000E000A83BB107D9F712E0A8EBB1E001C01D921F
:1000F000AB36B107E1F710E0C4ECD0E003C02297C3
:10010000FE011AD5C23CD107D1F7F7D219C578CF75
:1001100040E052EC61E070E088EB91E019D26BE0D6
:1001200071E088EB91E049D360ED77E080E090E00A
:10013000C1D367E271E088EB91E03FD360E087E0F4
:1001400041D460E088E03ED461E085E03BD461E0EA
:1001500084E038D461E083E035D461E08CE032D4CF
:1001600061E08BE02FD461E08AE02CD460E085E090
:1001700062D460E084E05FD461E083E05CD461E05D
:100180008CE059D460E08BE056D460E08AE053D430
:1001900067E371E088EB91E010C3CF93DF9364E4F1
:1001A00071E088EB91E009D387E07AD4019709F0F8
:1001B00053C061E571E088EB91E0FFD280910A01C4
:1001C000813009F44EC081E080930A0160910801FA
:1001D00070910901882777FD8095982F6BD360E097
:1001E0008AE029D461E08BE026D460910801709107
:1001F0000901882777FD8095982F5CD360E08BE01C
:100200001AD461E08CE017D4609106017091070167
:10021000882777FD8095982F4DD3C5E0D0E060E02A
:1002200084E009D464EF71E080E090E043D360E0C3
:1002300084E001D464EF71E080E090E03BD321974B
:10024000209769F760E084E0F6D360E085E0F3D3BF
:1002500061E083E0F0D305C064E671E088EB91E0F3
:10026000ACD288E01DD4019709F052C066E771E076
:1002700088EB91E0A2D280910A01813009F04DC053
:1002800010920A016091080170910901882777FD99
:100290008095982F0FD360E083E0CDD361E084E0B8
:1002A000CAD36091060170910701882777FD809578
:1002B000982F00D360E084E0BED361E085E0BBD33B
:1002C0006091060170910701882777FD8095982F2E
:1002D000F1D2C5E0D0E060E08BE0ADD364EF71E037
:1002E00080E090E0E7D261E08BE0A5D364EF71E0BD
:1002F00080E090E0DFD22197209769F760E08BE003
:100300009AD360E08CE097D361E08AE094D305C093
:1003100069E871E088EB91E050D26BE971E088EB1D
:1003200091E0DF91CF9149C2FC0124853585F90127
:10033000E05CFF4F80819181F901EE5BFF4F2081EE
:100340003181821B930B8F7399270895FC0184855B
:100350009585FC01E05CFF4F40815181FC01EE5B23
:10036000FF4F208131814217530741F00190F08106
:10037000E02DE80FF91F808190E008958FEF9FEF47
:100380000895FC0184859585FC01E05CFF4F408168
:100390005181FC01EE5BFF4F2081318142175307F1
:1003A00079F0A081B181A80FB91F8C912081318192
:1003B0002F5F3F4F2F7333273183208390E00895C1
:1003C0008FEF9FEF0895FC0181A1882329F0A48974
:1003D000B5898C9186FFFBCF11A20895CF93DF934F
:1003E000FC0126853785D901A05CBF4F8D919C917A
:1003F000119701968F739927E901CE5BDF4F4881F2
:10040000598184179507D9F30D90BC91A02DA20FA7
:10041000B31F6C93A685B785A05CBF4F11969C93C4
:100420008E93A689B7892C9181E090E0078C02C059
:10043000880F991F0A94E2F7282B2C9381E081A35F
:100440000488F589E02D80818064808381E090E0DC
:10045000DF91CF91089508951F920F920FB60F92DA
:1004600011242F933F934F938F939F93EF93FF9379
:100470008091C00082FD1CC04091C60080915E0248
:1004800090915F0201968F739927209160023091BD
:1004900061028217930771F0E0915E02F0915F02B2
:1004A000E25EFD4F408390935F0280935E0202C044
:1004B0008091C600FF91EF919F918F914F913F9155
:1004C0002F910F900FBE0F901F90189588EB91E021
:1004D0002BDF892B09F0BFCF08951F920F920FB623
:1004E0000F9211242F933F938F939F93EF93FF933A
:1004F00020911A0230911B0280911C0290911D02E2
:100500002817390731F48091C1008F7D8093C10095
:1005100014C0E0911C02F0911D02E652FE4F2081B2
:1005200080911C0290911D0201968F7399279093E0
:100530001D0280931C022093C600FF91EF919F91B2
:100540008F913F912F910F900FBE0F901F90189594
:10055000CF92DF92EF92FF92CF93DF93EC016A018B
:100560007B01411581EE580761057105F1F0EC89B9
:10057000FD8981E090E008A002C0880F991F0A94CD
:10058000E2F7808360E079E08DE390E0A7019601D7
:10059000AFD22150310941095109569547953795F8
:1005A0002795211580E1380790F0EC89FD891082AC
:1005B00060E874E88EE190E0A701960199D221509D
:1005C0003109410951095695479537952795E8898D
:1005D000F9893083EA89FB89208319A2EE89FF8992
:1005E000408181E090E09C010C8C02C0220F331FFF
:1005F0000A94E2F7422B4083EE89FF8940819C01F7
:100600000D8C02C0220F331F0A94E2F7422B408365
:10061000EE89FF8940819C010E8C02C0220F331F9E
:100620000A94E2F7422B4083EE89FF8920810F8CE8
:1006300002C0880F991F0A94E2F780958223808375
:10064000DF91CF91FF90EF90DF90CF9008951092BF
:10065000BB011092BA0188EE93E0A0E0B0E0809375
:10066000BC019093BD01A093BE01B093BF018BEA82
:1006700091E09093B9018093B8018EE192E090935C
:10068000C5018093C4018AED91E09093C7018093E6
:10069000C60185EC90E09093C9018093C80184EC79
:1006A00090E09093CB018093CA0180EC90E090930E
:1006B000CD018093CC0181EC90E09093CF018093A9
:1006C000CE0182EC90E09093D1018093D00186EC32
:1006D00090E09093D3018093D20184E08093D40181
:1006E00083E08093D50187E08093D60185E08093F5
:1006F000D70181E08093D801089500D109DDC6E6D5
:10070000D2E04BDD2097E9F3E1DEFBCFCF92DF9221
:10071000EF92FF920F931F93CF93DF936C017A01B7
:10072000EB01E60EF71E00E010E0CE15DF0561F0EC
:100730006991D601ED91FC910190F081E02DC60107
:100740000995080F191FF1CFC801DF91CF911F91B3
:100750000F91FF90EF90DF90CF9008956115710594
:1007600081F0DB010D900020E9F7AD014150510906
:10077000461B570BDC01ED91FC910280F381E02DCB
:10078000099480E090E00895DC01ED91FC910190E6
:10079000F081E02D09940F931F93CF93DF93EC0129
:1007A0006DE0F2DF8C016AE0CE01EEDF800F911F79
:1007B000DF91CF911F910F9108950F931F93CF93C6
:1007C000DF93EC01CBDF8C01CE01E5DF800F911FC1
:1007D000DF91CF911F910F9108951F920F920FB645
:1007E0000F9211242F933F938F939F93AF93BF93B7
:1007F0008091630290916402A0916502B0916602BB
:100800003091620223E0230F2D3720F40196A11DC1
:10081000B11D05C026E8230F0296A11DB11D20932E
:1008200062028093630290936402A0936502B09386
:1008300066028091670290916802A0916902B0916E
:100840006A020196A11DB11D809367029093680210
:10085000A0936902B0936A02BF91AF919F918F916B
:100860003F912F910F900FBE0F901F9018953FB79B
:10087000F8948091670290916802A0916902B0910A
:100880006A0226B5A89B05C02F3F19F00196A11D4D
:10089000B11D3FBF6627782F892F9A2F620F711DD8
:1008A000811D911D42E0660F771F881F991F4A9591
:1008B000D1F70895CF92DF92EF92FF92CF93DF931B
:1008C0006B017C01D4DFEB01C114D104E104F1041C
:1008D00071F0CDDF6C1B7D0B683E7340A8F381E0A7
:1008E000C81AD108E108F108C851DC4FEDCFDF91FB
:1008F000CF91FF90EF90DF90CF900895789484B5DA
:10090000826084BD84B5816084BD85B5826085BD0B
:1009100085B5816085BDEEE6F0E0808181608083F1
:10092000E1E8F0E0108280818260808380818160D4
:100930008083E0E8F0E0808181608083E1EBF0E09B
:10094000808184608083E0EBF0E08081816080833F
:10095000EAE7F0E080818460808380818260808328
:100960008081816080838081806880831092C10053
:100970000895833081F028F4813099F08230A1F01D
:1009800008958630A9F08730B9F08430D1F4809191
:1009900080008F7D03C0809180008F7780938000DE
:1009A000089584B58F7702C084B58F7D84BD089586
:1009B0008091B0008F7703C08091B0008F7D8093CD
:1009C000B0000895CF93DF9390E0FC01E458FF4F0F
:1009D0002491FC01E057FF4F8491882349F190E076
:1009E000880F991FFC01E854FF4FA591B4918255DF
:1009F0009F4FFC01C591D4919FB7611108C0F89435
:100A00008C91209582238C93888182230AC0623046
:100A100051F4F8948C91322F309583238C938881F4
:100A2000822B888304C0F8948C91822B8C939FBF77
:100A3000DF91CF9108950F931F93CF93DF931F9270
:100A4000CDB7DEB7282F30E0F901E859FF4F849188
:100A5000F901E458FF4F1491F901E057FF4F049159
:100A60000023C1F0882319F0698383DF6981E02FB7
:100A7000F0E0EE0FFF1FE255FF4FA591B4919FB735
:100A8000F8948C91611103C01095812301C0812BD2
:100A90008C939FBF0F90DF91CF911F910F9108957D
:100AA000CF93DF93282F30E0F901E859FF4F84916D
:100AB000F901E458FF4FD491F901E057FF4FC49179
:100AC000CC2389F0811155DFEC2FF0E0EE0FFF1FF2
:100AD000EC55FF4FA591B4912C912D2381E090E02E
:100AE00021F480E002C080E090E0DF91CF91089592
:100AF000A1E21A2EAA1BBB1BFD010DC0AA1FBB1F22
:100B0000EE1FFF1FA217B307E407F50720F0A21B93
:100B1000B30BE40BF50B661F771F881F991F1A9400
:100B200069F760957095809590959B01AC01BD012A
:100B3000CF010895EE0FFF1F0590F491E02D099469
:040B4000F894FFCF57
:100B440000006B022000E803D00701537461727443
:100B5400696E672061667465722032207365636F05
:100B64006E64732E2E2E00496E697469616C697A05
:100B7400696E672E2E2E00496E697469616C697AFC
:100B840065642100446F696E674C6F6F702E2E2E62
:100B94000057657374427574746F6E2069732048CE
:100BA4004947480057657374427574746F6E2069C1
:100BB40073204C4F570045617374427574746F6EA3
:100BC400206973204849474800456173744275742D
:100BD400746F6E206973204C4F57004C6F6F7020F8
:100BE400656E6465642E0000000000EE01860394C7
:080BF40001C101A601E30100AB
:00000001FF
