:100000005CC000007FC000007DC000007BC000001D
:1000100079C0000077C0000075C0000073C0000008
:1000200071C000006FC000006DC000006BC0000018
:1000300069C0000067C0000065C0000063C0000028
:10004000E9C000005FC000005DC000005BC00000B0
:1000500059C0000057C0000055C0000053C0000048
:1000600051C000004FC00000000000070002010066
:100070000003040600000000000000000102040864
:100080001020408001020408102001020408102002
:10009000040404040404040402020202020203032E
:1000A0000303030300000000250028002B000000CC
:1000B0000000240027002A00920011241FBECFEF69
:1000C000D8E0DEBFCDBF11E0A0E0B1E0ECE9F8E0A0
:1000D00002C005900D92A433B107D9F711E0A4E353
:1000E000B1E001C01D92A235B107E1F710E0CAEB03
:1000F000D0E003C02297FE01CBD3C83BD107D1F794
:1001000040D0CAC37DCF20E042E060E184E391E0CB
:1001100027D246E051E060E084E391E0E2D284E35C
:1001200091E0E6C1CF92EF920F9389E0C82E98E05C
:10013000E92E07E026E045E064E084E391E0ACD2FC
:100140000F91EF90CF90089540E060E084E391E05C
:10015000D4D166E171E084E391E05BD041E060E0FE
:1001600084E391E0CAD160E271E084E391E051D090
:1001700060E084E391E0EED260E177E280E090E03D
:10018000B6C0E4D0C0DFC0E0D0E0DEDF2097E9F306
:100190000E940000FACFCF92DF92EF92FF920F936E
:1001A0001F93CF93DF936C017A01EB01E60EF71EEC
:1001B00000E010E0CE15DF0561F06991D601ED9108
:1001C000FC910190F081E02DC6010995080F191FDF
:1001D000F1CFC801DF91CF911F910F91FF90EF9068
:1001E000DF90CF9008956115710581F0DB010D90CE
:1001F0000020E9F7AD0141505109461B570BDC01C6
:10020000ED91FC910280F381E02D099480E090E073
:100210000895E9CF1F920F920FB60F9211242F93DA
:100220003F938F939F93AF93BF9380914A01909197
:100230004B01A0914C01B0914D013091490123E057
:10024000230F2D3720F40196A11DB11D05C026E80E
:10025000230F0296A11DB11D2093490180934A01ED
:1002600090934B01A0934C01B0934D0180914E01AE
:1002700090914F01A0915001B09151010196A11DA3
:10028000B11D80934E0190934F01A0935001B09304
:100290005101BF91AF919F918F913F912F910F90FD
:1002A0000FBE0F901F9018953FB7F89480914E01A4
:1002B00090914F01A0915001B091510126B5A89B9A
:1002C00005C02F3F19F00196A11DB11D3FBF662744
:1002D000782F892F9A2F620F711D811D911D42E089
:1002E000660F771F881F991F4A95D1F70895CF92FF
:1002F000DF92EF92FF92CF93DF936B017C01D4DF0B
:10030000EB01C114D104E104F10471F0CDDF6C1BE9
:100310007D0B683E7340A8F381E0C81AD108E1085C
:10032000F108C851DC4FEDCFDF91CF91FF90EF90F6
:10033000DF90CF9008950197009739F0880F991FAB
:10034000880F991F02970197F1F70895789484B563
:10035000826084BD84B5816084BD85B5826085BDC1
:1003600085B5816085BDEEE6F0E0808181608083A7
:10037000E1E8F0E01082808182608083808181608A
:100380008083E0E8F0E0808181608083E1EBF0E051
:10039000808184608083E0EBF0E0808181608083F5
:1003A000EAE7F0E0808184608083808182608083DE
:1003B0008081816080838081806880831092C10009
:1003C0000895CF93DF93EC0160E08E812AD281E023
:1003D00090E0B1DF61E08E8124D281E090E0ABDF7C
:1003E00060E08E811ED284E690E0DF91CF91A3CFB2
:1003F000CF92DF92EF92FF920F931F93CF93DF93F1
:100400007C01C0E0D0E0C62ED12C87010C0F1D1F4F
:1004100061E0F8018781CCD1B6010C2E02C0759540
:1004200067950A94E2F76170F8018781FAD1219605
:10043000C430D10551F7C701DF91CF911F910F91C2
:10044000FF90EF90DF90CF90BCCFCF92DF92EF92F2
:10045000FF920F931F93CF93DF937C01C0E0D0E016
:10046000C62ED12C87010C0F1D1F61E0F80187817A
:100470009FD1B6010C2E02C0759567950A94E2F7DC
:100480006170F8018781CDD12196C830D10551F72F
:10049000C701DF91CF911F910F91FF90EF90DF90F7
:1004A000CF908FCF1F93CF93DF93EC01162F642F44
:1004B0008C81B7D18D818F3F11F060E0B2D18F85F3
:1004C000612F84FF05C0CE01DF91CF911F91BDCF79
:1004D00070E084E0759567958A95E1F7CE0188DF35
:1004E000612FCE01DF91CF911F9182CF40E0DACF13
:1004F00061E0FCDF80ED97E01ECFCF93DF93CDB7B7
:10050000DEB728970FB6F894DEBF0FBECDBF28E048
:10051000EEE0F1E0DE01119601900D922A95E1F7EF
:10052000FC012389421710F04FEF420FFE01319674
:10053000E40FF11DE40FF11D2081260F2068622FCA
:1005400028960FB6F894DEBF0FBECDBFDF91CF91D6
:10055000CDCFFC016089262F2460208B6C60C6CF34
:10056000CF93DF93EC01423018F08F8588608F873E
:100570004B8B1C8A222329F0413019F48F8584602B
:100580008F8780E593ECD7DE60E08C814AD160E014
:100590008E8147D18D818F3F11F060E042D16F8510
:1005A00064FD16C063E0CE0123DF84E991E1C3DE80
:1005B00063E0CE011DDF84E991E1BDDE63E0CE01A1
:1005C00017DF86E990E0B7DE62E0CE0111DF11C0EF
:1005D0006062CE018BDF84E991E1ADDE6F85606200
:1005E000CE0184DF86E990E0A6DE6F856062CE01F1
:1005F0007DDF6F856062CE0179DF84E0888BCE017C
:10060000A8DFCE0175DF82E0898B66E0CE01DF9145
:10061000CF916CCF6F927F928F92AF92CF92EF92E9
:100620000F931F93CF93DF93CDB7DEB73C01162F07
:10063000842F5D854E853F859889F30184832583CA
:100640000683E782C086A1868286538744873587E2
:10065000968761E0ADD0F30185818F3F11F061E0B5
:10066000A7D061E0F3018681A3D0112319F0F30133
:10067000178603C080E1F301878720E041E060E155
:10068000C301DF91CF911F910F91EF90CF90AF9069
:100690008F907F906F9064CF8F92AF92CF92EF92B6
:1006A0000F93DC0113961C921E921297EFE2F1E079
:1006B000ED93FC931F921F921F921F928C2CAE2CD5
:1006C000C02EE22E042F2FEF462F61E0A3DF0F9004
:1006D0000F900F900F900F91EF90CF90AF908F9061
:1006E0000895CF92DF92EF92FF920F931F93CF93D3
:1006F000DF9300D0CDB7DEB78C01677088E0689FCC
:10070000B00111246064C80149835A83EFDE498136
:10071000C42E5A81D52EE12CF12CD6016D916D019C
:10072000D801ED91FC910190F081E02DC80109956F
:10073000BFEFEB1AFB0AE8E0EE16F10471F70F9039
:100740000F90DF91CF911F910F91FF90EF90DF906D
:10075000CF90089541E0A6DE81E090E008958330D7
:1007600081F028F4813099F08230A1F0089586302C
:10077000A9F08730B9F08430D1F4809180008F7D6A
:1007800003C0809180008F7780938000089584B5A6
:100790008F7702C084B58F7D84BD08958091B000AD
:1007A0008F7703C08091B0008F7D8093B000089553
:1007B000CF93DF9390E0FC01E458FF4F2491FC01BC
:1007C000E057FF4F8491882349F190E0880F991FEB
:1007D000FC01E255FF4FA591B4918C559F4FFC0150
:1007E000C591D4919FB7611108C0F8948C91209560
:1007F00082238C93888182230AC0623051F4F8945A
:100800008C91322F309583238C938881822B88831F
:1008100004C0F8948C91822B8C939FBFDF91CF9171
:1008200008950F931F93CF93DF931F92CDB7DEB739
:10083000282F30E0F901E859FF4F8491F901E4587D
:10084000FF4F1491F901E057FF4F04910023C1F0CD
:10085000882319F0698383DF6981E02FF0E0EE0FD0
:10086000FF1FEC55FF4FA591B4919FB7F8948C9161
:10087000611103C01095812301C0812B8C939FBF10
:100880000F90DF91CF911F910F910895EE0FFF1FF1
:0C0890000590F491E02D0994F894FFCF3E
:10089C00000052012000000A0A0004110E000000A2
:1008AC0040001400540042757363686261756D00FA
:1008BC00676568742061622121210000000000AA94
:0408CC0003CB00005A
:00000001FF
