:100000005BC0000074C0000072C0000070C000003F
:100010006EC000006CC000006AC0000068C0000034
:1000200066C0000064C0000062C0000060C0000044
:100030005EC000005CC000005AC0000058C0000054
:1000400091C0000054C0000052C0000050C0000029
:100050004EC000004CC000004AC0000048C0000074
:1000600046C0000044C0000000000007000201007C
:100070000003040600000000000000000102040864
:100080001020408001020408102001020408102002
:10009000040404040404040402020202020203032E
:1000A0000303030300000000250028002B000000CC
:1000B0000000240027002A0011241FBECFEFD8E043
:1000C000DEBFCDBF11E0A0E0B1E0E0EAF3E002C0A6
:1000D00005900D92AA30B107D9F711E0AAE0B1E07E
:1000E00001C01D92A531B107E1F732D057C188CFC9
:1000F00061E080910801E4D061E080910A01E0D0E4
:1001000061E080910601DCD061E080910401D8D0EB
:1001100061E080910201D4D061E080910001D0C003
:1001200061E08091040105D161E08091020101D17B
:1001300060E080910001FDD061E080910801F9D07C
:1001400061E080910A01F5D060E080910601F1C084
:1001500053D0CEDFC0E0D0E0E3DF2097E9F30E9488
:100160000000FACF1F920F920FB60F9211242F9317
:100170003F938F939F93AF93BF9380910D01909185
:100180000E01A0910F01B091100130910C0123E0FC
:10019000230F2D3720F40196A11DB11D05C026E8BF
:1001A000230F0296A11DB11D20930C0180930D0118
:1001B00090930E01A0930F01B09310018091110153
:1001C00090911201A0911301B09114010196A11D0B
:1001D000B11D8093110190931201A0931301B0936C
:1001E0001401BF91AF919F918F913F912F910F90EB
:1001F0000FBE0F901F901895789484B5826084BDCF
:1002000084B5816084BD85B5826085BD85B581601A
:1002100085BDEEE6F0E0808181608083E1E8F0E07A
:100220001082808182608083808181608083E0E8A9
:10023000F0E0808181608083E1EBF0E08081846088
:100240008083E0EBF0E0808181608083EAE7F0E08A
:1002500080818460808380818260808380818160EE
:1002600080838081806880831092C10008958330EC
:1002700081F028F4813099F08230A1F00895863021
:10028000A9F08730B9F08430D1F4809180008F7D5F
:1002900003C0809180008F7780938000089584B59B
:1002A0008F7702C084B58F7D84BD08958091B000A2
:1002B0008F7703C08091B0008F7D8093B000089548
:1002C000CF93DF9390E0FC01E458FF4F2491FC01B1
:1002D000E057FF4F8491882349F190E0880F991FE0
:1002E000FC01E255FF4FA591B4918C559F4FFC0145
:1002F000C591D4919FB7611108C0F8948C91209555
:1003000082238C93888182230AC0623051F4F8944E
:100310008C91322F309583238C938881822B888314
:1003200004C0F8948C91822B8C939FBFDF91CF9166
:1003300008950F931F93CF93DF931F92CDB7DEB72E
:10034000282F30E0F901E859FF4F8491F901E45872
:10035000FF4F1491F901E057FF4F04910023C1F0C2
:10036000882319F0698383DF6981E02FF0E0EE0FC5
:10037000FF1FEC55FF4FA591B4919FB7F8948C9156
:10038000611103C01095812301C0812B8C939FBF05
:100390000F90DF91CF911F910F910895F894FFCFA7
:0A03A0000300020006000100050042
:00000001FF
