:100000005BC0000074C0000072C0000070C000003F
:100010006EC000006CC000006AC0000068C0000034
:1000200066C0000064C0000062C0000060C0000044
:100030005EC000005CC000005AC0000058C0000054
:1000400052C1000054C0000052C0000050C0000067
:100050004EC000004CC000004AC0000048C0000074
:1000600046C0000044C0000000000007000201007C
:100070000003040600000000000000000102040864
:100080001020408001020408102001020408102002
:10009000040404040404040402020202020203032E
:1000A0000303030300000000250028002B000000CC
:1000B0000000240027002A0011241FBECFEFD8E043
:1000C000DEBFCDBF11E0A0E0B1E0E0EBF5E002C0A3
:1000D00005900D92AA30B107D9F711E0AAE0B1E07E
:1000E00001C01D92A331B107E1F796D05FC288CF5E
:1000F00061E080910801ECD161E080910601E8D1D6
:1001000061E080910401E4D161E080910201E0C1ED
:10011000CF92DF92EF92FF920F931F93CF93DF93D3
:1001200006E011E060E0F80180810BD2C2E0D1E08E
:1001300060E0888106D2609100017091010188E041
:10014000C82E81E0D82EF601808170D06091000128
:100150007091010194E0E92E91E0F92EF701808180
:1001600065D060ED77E080E090E02AD160E0F601B4
:100170008081E7D160E08881E4D1609100017091D5
:100180000101F801808152D060910001709101015C
:10019000F70180814BD060ED77E080E090E010D1F6
:1001A00060E0F8018081CDD160E0F7018081C9D1A4
:1001B0006091000170910101F601808137D060915A
:1001C000000170910101888131D060ED77E080E01D
:1001D00090E0F6D060E0F6018081B3D160E0F701F5
:1001E0008081AFD16091000170910101F80180819F
:1001F0001DD06091000170910101888117D060EDE0
:1002000077E080E090E0DF91CF911F910F91FF9018
:10021000EF90DF90CF90D4C0F7D06ADFC0E0D0E09D
:1002200077DF2097E9F30E940000FACF1F93CF9366
:10023000DF93182FEB0161E04BD1209711F460E0C0
:1002400004C0CF3FD10531F461E0812FDF91CF9120
:100250001F9177C1E12FF0E0E859FF4FE491E330BF
:10026000F9F048F4E130B9F0E230A1F584B58062EC
:1002700084BDC8BD34C0E630E9F0E73019F1E430A0
:1002800049F580918000806280938000D0938B003C
:10029000C0938A0024C084B5806884BDC7BD1FC0D8
:1002A00080918000806880938000D0938900C09303
:1002B000880015C08091B00080688093B000C09322
:1002C000B3000DC08091B00080628093B000C093F5
:1002D000B40005C0C038D1050CF0B6CFB0CFDF9167
:1002E000CF911F9108951F920F920FB60F92112474
:1002F0002F933F938F939F93AF93BF9380910B0165
:1003000090910C01A0910D01B0910E0130910A0164
:1003100023E0230F2D3720F40196A11DB11D05C048
:1003200026E8230F0296A11DB11D20930A01809398
:100330000B0190930C01A0930D01B0930E018091DD
:100340000F0190911001A0911101B091120101963D
:10035000A11DB11D80930F0190931001A093110175
:10036000B0931201BF91AF919F918F913F912F91C7
:100370000F900FBE0F901F9018953FB7F894809183
:100380000F0190911001A0911101B091120126B5B9
:10039000A89B05C02F3F19F00196A11DB11D3FBFBD
:1003A0006627782F892F9A2F620F711D811D911D4D
:1003B00042E0660F771F881F991F4A95D1F708956D
:1003C000CF92DF92EF92FF92CF93DF936B017C018C
:1003D000D4DFEB01C114D104E104F10471F0CDDFED
:1003E0006C1B7D0B683E7340A8F381E0C81AD108EE
:1003F000E108F108C851DC4FEDCFDF91CF91FF90BC
:10040000EF90DF90CF900895789484B5826084BD9A
:1004100084B5816084BD85B5826085BD85B5816008
:1004200085BDEEE6F0E0808181608083E1E8F0E068
:100430001082808182608083808181608083E0E897
:10044000F0E0808181608083E1EBF0E08081846076
:100450008083E0EBF0E0808181608083EAE7F0E078
:1004600080818460808380818260808380818160DC
:1004700080838081806880831092C10008958330DA
:1004800081F028F4813099F08230A1F0089586300F
:10049000A9F08730B9F08430D1F4809180008F7D4D
:1004A00003C0809180008F7780938000089584B589
:1004B0008F7702C084B58F7D84BD08958091B00090
:1004C0008F7703C08091B0008F7D8093B000089536
:1004D000CF93DF9390E0FC01E458FF4F2491FC019F
:1004E000E057FF4F8491882349F190E0880F991FCE
:1004F000FC01E255FF4FA591B4918C559F4FFC0133
:10050000C591D4919FB7611108C0F8948C91209542
:1005100082238C93888182230AC0623051F4F8943C
:100520008C91322F309583238C938881822B888302
:1005300004C0F8948C91822B8C939FBFDF91CF9154
:1005400008950F931F93CF93DF931F92CDB7DEB71C
:10055000282F30E0F901E859FF4F8491F901E45860
:10056000FF4F1491F901E057FF4F04910023C1F0B0
:10057000882319F0698383DF6981E02FF0E0EE0FB3
:10058000FF1FEC55FF4FA591B4919FB7F8948C9144
:10059000611103C01095812301C0812B8C939FBFF3
:1005A0000F90DF91CF911F910F910895F894FFCF95
:0A05B000F00009000600050003003A
:00000001FF
