:100000005BC0000074C0000072C0000070C000003F
:100010006EC000006CC000006AC0000068C0000034
:1000200066C0000064C0000062C0000060C0000044
:100030005EC000005CC000005AC0000058C0000054
:10004000D7C0000054C0000052C0000050C00000E3
:100050004EC000004CC000004AC0000048C0000074
:1000600046C0000044C0000000000007000201007C
:100070000003040600000000000000000102040864
:100080001020408001020408102001020408102002
:10009000040404040404040402020202020203032E
:1000A0000303030300000000250028002B000000CC
:1000B0000000240027002A0011241FBECFEFD8E043
:1000C000DEBFCDBF11E0A0E0B1E0ECE2F4E002C0A1
:1000D00005900D92A630B107D9F711E0A6E0B1E086
:1000E00001C01D92AF30B107E1F71BD09DC188CF91
:1000F00061E0809104012AD161E08091020126D162
:1001000061E08091000122C166E970E08091040104
:1001100012D061E08091020152D160E08091000133
:100120004EC1B0D0E5DFC0E0D0E0EEDF2097E9F3CC
:100130000E940000FACF1F93CF93DF93182FEB019B
:1001400061E004D1209711F460E004C0CF3FD105F5
:1001500031F461E0812FDF91CF911F9130C1E12F08
:10016000F0E0E859FF4FE491E330F9F048F4E13072
:10017000B9F0E230A1F584B5806284BDC8BD34C059
:10018000E630E9F0E73019F1E43049F5809180007C
:10019000806280938000D0938B00C0938A0024C03B
:1001A00084B5806884BDC7BD1FC080918000806811
:1001B00080938000D0938900C093880015C08091FF
:1001C000B00080688093B000C093B3000DC08091F0
:1001D000B00080628093B000C093B40005C0C03806
:1001E000D1050CF0B6CFB0CFDF91CF911F9108951C
:1001F0001F920F920FB60F9211242F933F938F935C
:100200009F93AF93BF938091070190910801A091B4
:100210000901B0910A013091060123E0230F2D3727
:1002200020F40196A11DB11D05C026E8230F0296FA
:10023000A11DB11D20930601809307019093080131
:10024000A0930901B0930A0180910B0190910C01D8
:10025000A0910D01B0910E010196A11DB11D8093D9
:100260000B0190930C01A0930D01B0930E01BF916F
:10027000AF919F918F913F912F910F900FBE0F9053
:100280001F901895789484B5826084BD84B5816090
:1002900084BD85B5826085BD85B5816085BDEEE68E
:1002A000F0E0808181608083E1E8F0E0108280816D
:1002B00082608083808181608083E0E8F0E08081DB
:1002C00081608083E1EBF0E0808184608083E0EBFB
:1002D000F0E0808181608083EAE7F0E080818460E3
:1002E000808380818260808380818160808380813F
:1002F000806880831092C1000895833081F028F4D3
:10030000813099F08230A1F008958630A9F08730CD
:10031000B9F08430D1F4809180008F7D03C080914A
:1003200080008F7780938000089584B58F7702C016
:1003300084B58F7D84BD08958091B0008F7703C010
:100340008091B0008F7D8093B0000895CF93DF93AC
:1003500090E0FC01E458FF4F2491FC01E057FF4F6F
:100360008491882349F190E0880F991FFC01E255A0
:10037000FF4FA591B4918C559F4FFC01C591D4912D
:100380009FB7611108C0F8948C91209582238C93BB
:10039000888182230AC0623051F4F8948C91322F04
:1003A000309583238C938881822B888304C0F894B2
:1003B0008C91822B8C939FBFDF91CF9108950F93E7
:1003C0001F93CF93DF931F92CDB7DEB7282F30E076
:1003D000F901E859FF4F8491F901E458FF4F149156
:1003E000F901E057FF4F04910023C1F0882319F071
:1003F000698383DF6981E02FF0E0EE0FFF1FEC558A
:10040000FF4FA591B4919FB7F8948C91611103C0EF
:100410001095812301C0812B8C939FBF0F90DF919A
:0C042000CF911F910F910895F894FFCF29
:06042C00020001000A00BD
:00000001FF
