:1000000034C0000057C0000055C0000053C00000BD
:1000100051C000004FC000004DC000004BC00000A8
:1000200049C0000047C0000045C0000043C00000B8
:1000300041C000003FC000003DC000003BC00000C8
:1000400099C4000037C0000032C1000071C1000037
:1000500031C000002FC000002DC000002BC00000E8
:1000600029C0000027C00000520211241FBECFEF9C
:10007000D8E0DEBFCDBF11E0A0E0B1E0EEE9FFE0E7
:1000800002C005900D92AA33B107D9F711E0AAE397
:10009000B1E001C01D92AD3EB107E1F710E0CAE644
:1000A000D0E003C02297FE0174D7C836D107D1F73C
:1000B0004FD273C7A5CF40E052EC61E070E08AE315
:1000C00091E071C14F925F926F927F928F929F9257
:1000D000AF92BF92CF92DF92EF92FF9280E02DD449
:1000E000BC01882777FD8095982F14D62B013C0101
:1000F00020E030E040E85AE3C1D64B015C0120E04B
:1001000030E040EA50E4BAD66B017C0122E030E0F6
:10011000B301A2018AE391E000D422E030E0B5010E
:10012000A4018AE391E0F9D322E030E0B701A6010F
:100130008AE391E0F2D320E030E048EC52E4C701DA
:10014000B6019CD6AB01BC0122E030E08AE391E02D
:10015000E4D367E071E08AE391E05AD26AEF70E09D
:1001600080E090E0FF90EF90DF90CF90BF90AF9055
:100170009F908F907F906F905F904F9068C4FC012C
:1001800024853585F901E05CFF4F80819181F9017B
:10019000EE5BFF4F20813181821B930B8F73992778
:1001A0000895FC0184859585FC01E05CFF4F40814A
:1001B0005181FC01EE5BFF4F2081318142175307D3
:1001C00041F00190F081E02DE80FF91F808190E06F
:1001D00008958FEF9FEF0895FC0184859585FC01BC
:1001E000E05CFF4F40815181FC01EE5BFF4F2081BD
:1001F00031814217530779F0A081B181A80FB91F4F
:100200008C91208131812F5F3F4F2F7333273183B2
:10021000208390E008958FEF9FEF0895FC0181A166
:10022000882329F0A489B5898C9186FFFBCF11A280
:100230000895CF93DF93FC0126853785D901A05C13
:10024000BF4F8D919C91119701968F739927E9016A
:10025000CE5BDF4F4881598184179507D9F30D9004
:10026000BC91A02DA20FB31F6C93A685B785A05C8F
:10027000BF4F11969C938E93A689B7892C9181E0EC
:1002800090E0078C02C0880F991F0A94E2F7282B90
:100290002C9381E081A30488F589E02D808180641E
:1002A000808381E090E0DF91CF91089508951F92BF
:1002B0000F920FB60F9211242F933F934F938F936A
:1002C0009F93EF93FF938091C00082FD1CC04091EB
:1002D000C6008091E0019091E10101968F7399270A
:1002E0002091E2013091E3018217930771F0E091D0
:1002F000E001F091E101E056FE4F40839093E1016F
:100300008093E00102C08091C600FF91EF919F9120
:100310008F914F913F912F910F900FBE0F901F9093
:1003200018958AE391E02BDF892B09F0BFCF089560
:100330001F920F920FB60F9211242F933F938F931A
:100340009F93EF93FF9320919C0130919D018091A9
:100350009E0190919F012817390731F48091C100C7
:100360008F7D8093C10014C0E0919E01F0919F01A8
:10037000E45AFE4F208180919E0190919F01019649
:100380008F73992790939F0180939E012093C600BD
:10039000FF91EF919F918F913F912F910F900FBE01
:1003A0000F901F901895CF92DF92EF92FF92CF930C
:1003B000DF93EC016A017B01411581EE580761056D
:1003C0007105F1F0EC89FD8981E090E008A002C0A0
:1003D000880F991F0A94E2F7808360E079E08DE34B
:1003E00090E0A7019601B1D5215031094109510989
:1003F0005695479537952795211580E1380790F058
:10040000EC89FD89108260E874E88EE190E0A70134
:1004100096019BD5215031094109510956954795BF
:1004200037952795E889F9893083EA89FB89208304
:1004300019A2EE89FF89408181E090E09C010C8C3B
:1004400002C0220F331F0A94E2F7422B4083EE8949
:10045000FF8940819C010D8C02C0220F331F0A943A
:10046000E2F7422B4083EE89FF8940819C010E8C8C
:1004700002C0220F331F0A94E2F7422B4083EE8919
:10048000FF8920810F8C02C0880F991F0A94E2F720
:10049000809582238083DF91CF91FF90EF90DF9052
:1004A000CF90089510923D0110923C0188EE93E0A8
:1004B000A0E0B0E080933E0190933F01A093400103
:1004C000B09341018FE191E090933B0180933A0119
:1004D00080EA91E090934701809346018CE591E09A
:1004E000909349018093480185EC90E090934B01F3
:1004F00080934A0184EC90E090934D0180934C01ED
:1005000080EC90E090934F0180934E0181EC90E05D
:10051000909351018093500182EC90E090935301AD
:100520008093520186EC90E09093550180935401A2
:1005300084E08093560183E08093570187E08093A5
:10054000580185E08093590181E080935A01089514
:10055000A2D2B1DDC1E9D1E0B5DD2097E9F3E1DE5A
:10056000FBCFCF92DF92EF92FF920F931F93CF9327
:10057000DF936C017A01EB01E60EF71E00E010E05C
:10058000CE15DF0561F06991D601ED91FC910190E6
:10059000F081E02DC6010995080F191FF1CFC801A0
:1005A000DF91CF911F910F91FF90EF90DF90CF904F
:1005B00008956115710581F0DB010D900020E9F7C8
:1005C000AD0141505109461B570BDC01ED91FC91E7
:1005D0000280F381E02D099480E090E00895DC0131
:1005E000ED91FC910190F081E02D09940F931F9300
:1005F000CF93DF93EC016DE0F2DF8C016AE0CE0176
:10060000EEDF800F911FDF91CF911F910F91089521
:100610000F931F93CF93DF93EC01CBDF8C01CE01BF
:10062000E5DF800F911FDF91CF911F910F9108950A
:100630008F929F92AF92BF92CF92DF92EF92FF92F2
:100640000F931F93CF93DF93CDB7DEB7A1970FB66C
:10065000F894DEBF0FBECDBF7C01C42EE52FCB01C9
:10066000D22E19A221E02D1510F02AE0D22E8E01F3
:100670000F5D1F4F8D2C912CA12CB12C6C2D7E2F3A
:10068000A501940162D48C2DD29E801911240150B1
:1006900011098A3014F4805D01C0895CF8018083FF
:1006A000211531054105510521F0C22EE32FCA0164
:1006B000E5CFB801C7017DDFA1960FB6F894DEBF84
:1006C0000FBECDBFDF91CF911F910F91FF90EF90A3
:1006D000DF90CF90BF90AF909F908F900895CF9272
:1006E000DF92EF92FF920F931F93CF93DF93EC0172
:1006F0006A017B012115310579F4E881F9810190C6
:10070000F081E02D642FDF91CF911F910F91FF9029
:10071000EF90DF90CF9009942A303105D9F477FF1C
:1007200018C06DE25CDF8C0144275527BA014C19D3
:100730005D096E097F092AE0CE017ADF800F911FE3
:10074000DF91CF911F910F91FF90EF90DF90CF90AD
:1007500008952AE0B701A601CE01DF91CF911F9144
:100760000F91FF90EF90DF90CF9062CF4F925F920A
:100770006F927F928F929F92AF92BF92CF92DF92B1
:10078000EF92FF920F931F93CF93DF93EC016A01D7
:100790007B01B22E9A01AB01C701B601D2D38823E7
:1007A00019F06BE271E024C026013701E89477F874
:1007B0002FEF3FEF4FE75FE7C301B201C2D38111D3
:1007C0000CC02FEF3FEF4FE75FE7C301B20103D249
:1007D00018161CF46FE271E00BC02FEF3FEF4FE7EC
:1007E0005FE4C701B60146D31816A4F463E371E0D1
:1007F000CE01DF91CF911F910F91FF90EF90DF908D
:10080000CF90BF90AF909F908F907F906F905F90B0
:100810004F90CFCE2FEF3FEF4FE75FECC701B60110
:10082000DAD187FDE3CF20E030E0A901C701B601AE
:10083000D2D187FF09C06DE2CE01D1DE8C01F7FA7B
:10084000F094F7F8F09402C000E010E0A12C60E012
:1008500070E080E09FE3AB1439F020E030E040E24C
:1008600051E4BDD1A394F7CF9B01AC01C701B60100
:100870004ED16B017C0120D22B013C0149D29B015E
:10088000AC01C701B60142D16B017C012AE0B30182
:10089000A201CE01CDDE080F191FBB2031F067E3A6
:1008A00071E0CE0186DE080F191F7B2C772019F12D
:1008B00020E030E040E251E4C701B601DFD26B0135
:1008C0007C01F5D14B01AA2497FCA094BA2C2AE014
:1008D00030E0B501A401CE0102DF080F191FC501E8
:1008E000B40118D29B01AC01C701B6010FD16B0155
:1008F0007C017A94DBCFC801DF91CF911F910F91DA
:10090000FF90EF90DF90CF90BF90AF909F908F902F
:100910007F906F905F904F9008950F931F93CF93A8
:10092000DF93EC0123DF8C01CE0160DE800F911F8D
:10093000DF91CF911F910F9108958E3008F08E5066
:1009400087702091060190E4299F90011124822B49
:1009500080937C0080917A00806480937A008091FB
:100960007A0086FDFCCF809178002091790090E09C
:10097000922B08951F920F920FB60F9211242F936E
:100980003F938F939F93AF93BF938091E501909195
:10099000E601A091E701B091E8013091E40123E084
:1009A000230F2D3720F40196A11DB11D05C026E8A7
:1009B000230F0296A11DB11D2093E4018093E50150
:1009C0009093E601A093E701B093E8018091E901DB
:1009D0009091EA01A091EB01B091EC010196A11D6B
:1009E000B11D8093E9019093EA01A093EB01B093CC
:1009F000EC01BF91AF919F918F913F912F910F90FB
:100A00000FBE0F901F9018953FB7F8948091E901A1
:100A10009091EA01A091EB01B091EC0126B5A89B61
:100A200005C02F3F19F00196A11DB11D3FBF6627DC
:100A3000782F892F9A2F620F711D811D911D42E021
:100A4000660F771F881F991F4A95D1F70895CF9297
:100A5000DF92EF92FF92CF93DF936B017C01D4DFA3
:100A6000EB01C114D104E104F10471F0CDDF6C1B82
:100A70007D0B683E7340A8F381E0C81AD108E108F5
:100A8000F108C851DC4FEDCFDF91CF91FF90EF908F
:100A9000DF90CF900895789484B5826084BD84B54A
:100AA000816084BD85B5826085BD85B5816085BD69
:100AB000EEE6F0E0808181608083E1E8F0E0108282
:100AC000808182608083808181608083E0E8F0E0C3
:100AD000808181608083E1EBF0E0808184608083AD
:100AE000E0EBF0E0808181608083EAE7F0E08081E4
:100AF0008460808380818260808380818160808344
:100B00008081806880831092C10008955058BB276F
:100B1000AA270ED075C166D130F06BD120F031F428
:100B20009F3F11F41EF45BC10EF4E095E7FB51C149
:100B3000E92F77D180F3BA17620773078407950707
:100B400018F071F49EF58FC10EF4E0950B2EBA2FBC
:100B5000A02D0B01B90190010C01CA01A0011124C3
:100B6000FF27591B99F0593F50F4503E68F11A166F
:100B7000F040A22F232F342F4427585FF3CF469500
:100B800037952795A795F0405395C9F77EF41F1622
:100B9000BA0B620B730B840BBAF09150A1F0FF0FEC
:100BA000BB1F661F771F881FC2F70EC0BA0F621FD8
:100BB000731F841F48F4879577956795B795F795C8
:100BC0009E3F08F0B3CF9395880F08F09927EE0F5A
:100BD000979587950895D9D008F481E008950CD0B1
:100BE0000FC107D140F0FED030F021F45F3F19F083
:100BF000F0C0511139C1F3C014D198F39923C9F34E
:100C00005523B1F3951B550BBB27AA276217730712
:100C1000840738F09F5F5F4F220F331F441FAA1FC6
:100C2000A9F333D00E2E3AF0E0E830D09150504086
:100C3000E695001CCAF729D0FE2F27D0660F771F34
:100C4000881FBB1F261737074807AB07B0E809F016
:100C5000BB0B802DBF01FF2793585F4F2AF09E3FAB
:100C6000510568F0B6C000C15F3FECF3983EDCF37D
:100C7000869577956795B795F7959F5FC9F7880F24
:100C8000911D9695879597F90895E1E0660F771F76
:100C9000881FBB1F621773078407BA0720F0621B07
:100CA000730B840BBA0BEE1F88F7E095089504D000
:100CB0006894B111D9C00895BCD088F09F5790F0C6
:100CC000B92F9927B751A0F0D1F0660F771F881F71
:100CD000991F1AF0BA95C9F712C0B13081F0C3D08C
:100CE000B1E00895C0C0672F782F8827B85F39F02A
:100CF000B93FCCF3869577956795B395D9F73EF4D0
:100D000090958095709561957F4F8F4F9F4F089577
:100D1000E89409C097FB3EF4909580957095619595
:100D20007F4F8F4F9F4F9923A9F0F92F96E9BB274B
:100D30009395F695879577956795B795F111F8CFC7
:100D4000FAF4BB0F11F460FF1BC06F5F7F4F8F4F32
:100D50009F4F16C0882311F096E911C0772321F028
:100D60009EE8872F762F05C0662371F096E8862FC0
:100D700070E060E02AF09A95660F771F881FDAF717
:100D8000880F9695879597F90895990F0008550F44
:100D9000AA0BE0E8FEEF16161706E807F907C0F001
:100DA00012161306E407F50798F0621B730B840B09
:100DB000950B39F40A2661F0232B242B252B21F4E3
:100DC00008950A2609F4A140A6958FEF811D811D83
:100DD000089597F99F6780E870E060E008959FEFBD
:100DE00080EC089500240A941616170618060906C2
:100DF000089500240A941216130614060506089591
:100E0000092E0394000C11F4882352F0BB0F40F418
:100E1000BF2B11F460FF04C06F5F7F4F8F4F9F4F58
:100E2000089557FD9058440F551F59F05F3F71F0DA
:100E30004795880F97FB991F61F09F3F79F0879541
:100E40000895121613061406551FF2CF4695F1DFCA
:100E500008C0161617061806991FF1CF869571055A
:100E6000610508940895E894BB2766277727CB018E
:100E700097F908958ADF08F48FEF08950BD0C0CF5B
:100E8000B1DF28F0B6DF18F0952309F0A2CFA7CF85
:100E90001124EACFC6DFA0F3959FD1F3950F50E060
:100EA000551F629FF001729FBB27F00DB11D639F1C
:100EB000AA27F00DB11DAA1F649F6627B00DA11DC2
:100EC000661F829F2227B00DA11D621F739FB00D68
:100ED000A11D621F839FA00D611D221F749F3327D8
:100EE000A00D611D231F849F600D211D822F762F71
:100EF0006A2F11249F5750408AF0E1F088234AF06E
:100F0000EE0FFF1FBB1F661F771F881F91505040B9
:100F1000A9F79E3F510570F05CCFA6CF5F3FECF381
:100F2000983EDCF3869577956795B795F795E795A5
:100F30009F5FC1F7FE2B880F911D9695879597F9B6
:100F4000089523DF880B990B0895A1E21A2EAA1B9E
:100F5000BB1BFD010DC0AA1FBB1FEE1FFF1FA21769
:100F6000B307E407F50720F0A21BB30BE40BF50B66
:100F7000661F771F881F991F1A9469F760957095EF
:100F8000809590959B01AC01BD01CF010895EE0FB6
:0E0F9000FF1F0590F491E02D0994F894FFCF17
:100F9E000000ED012000012D2D2D2D2D2D2D2D2D9F
:100FAE002D2D2D2D2D2D2D2D2D2D00000000001958
:100FBE0001B102BF00EC00D1000E016E616E00693E
:0A0FCE006E66006F7666002E0000CC
:00000001FF
