:100000005CC000007FC000007DC000007BC000001D
:1000100079C0000077C0000075C0000073C0000008
:1000200071C000006FC000006DC000006BC0000018
:1000300069C0000067C0000065C0000063C0000028
:10004000ABC300005FC0000032C1000071C10000FE
:1000500059C0000057C0000055C0000053C0000048
:1000600051C000004FC00000000000070002010066
:100070000003040600000000000000000102040864
:100080001020408001020408102001020408102002
:10009000040404040404040402020202020203032E
:1000A0000303030300000000250028002B000000CC
:1000B0000000240027002A00520211241FBECFEFA7
:1000C000D8E0DEBFCDBF11E0A0E0B1E0EAE2FBE0A6
:1000D00002C005900D92AA32B107D9F711E0AAE249
:1000E000B1E001C01D92AD3DB107E1F710E0CAEBF0
:1000F000D0E003C02297FE0112D5C83BD107D1F74B
:1001000027D211C57DCF61E088E03BD461E08AE071
:1001100038D461E086E035D440E052EC61E070E034
:100120008AE291E040C1CF93DF93C0E0D0E066E087
:1001300071E08AE291E06CD24AE050E0BE018AE2CE
:1001400091E014D360E088E055D42C2F41E06AE0C0
:1001500086E085D461E088E04DD462E370E080E021
:1001600090E087D361E171E08AE291E051D221967B
:10017000C11581E0D807D9F6DF91CF910895FC0130
:1001800024853585F901E05CFF4F80819181F9017B
:10019000EE5BFF4F20813181821B930B8F73992778
:1001A0000895FC0184859585FC01E05CFF4F40814A
:1001B0005181FC01EE5BFF4F2081318142175307D3
:1001C00041F00190F081E02DE80FF91F808190E06F
:1001D00008958FEF9FEF0895FC0184859585FC01BC
:1001E000E05CFF4F40815181FC01EE5BFF4F2081BD
:1001F00031814217530779F0A081B181A80FB91F4F
:100200008C91208131812F5F3F4F2F7333273183B2
:10021000208390E008958FEF9FEF0895FC0181A166
:10022000882329F0A489B5898C9186FFFBCF11A280
:100230000895CF93DF93FC0126853785D901A05C13
:10024000BF4F8D919C91119701968F739927E9016A
:10025000CE5BDF4F4881598184179507D9F30D9004
:10026000BC91A02DA20FB31F6C93A685B785A05C8F
:10027000BF4F11969C938E93A689B7892C9181E0EC
:1002800090E0078C02C0880F991F0A94E2F7282B90
:100290002C9381E081A30488F589E02D808180641E
:1002A000808381E090E0DF91CF91089508951F92BF
:1002B0000F920FB60F9211242F933F934F938F936A
:1002C0009F93EF93FF938091C00082FD1CC04091EB
:1002D000C6008091D0019091D10101968F7399272A
:1002E0002091D2013091D3018217930771F0E091F0
:1002F000D001F091D101E057FE4F40839093D1019E
:100300008093D00102C08091C600FF91EF919F9130
:100310008F914F913F912F910F900FBE0F901F9093
:1003200018958AE291E02BDF892B09F0BFCF089561
:100330001F920F920FB60F9211242F933F938F931A
:100340009F93EF93FF9320918C0130918D018091C9
:100350008E0190918F012817390731F48091C100E7
:100360008F7D8093C10014C0E0918E01F0918F01C8
:10037000E45BFE4F208180918E0190918F01019668
:100380008F73992790938F0180938E012093C600DD
:10039000FF91EF919F918F913F912F910F900FBE01
:1003A0000F901F901895CF92DF92EF92FF92CF930C
:1003B000DF93EC016A017B01411581EE580761056D
:1003C0007105F1F0EC89FD8981E090E008A002C0A0
:1003D000880F991F0A94E2F7808360E079E08DE34B
:1003E00090E0A701960177D32150310941095109C5
:1003F0005695479537952795211580E1380790F058
:10040000EC89FD89108260E874E88EE190E0A70134
:10041000960161D3215031094109510956954795FB
:1004200037952795E889F9893083EA89FB89208304
:1004300019A2EE89FF89408181E090E09C010C8C3B
:1004400002C0220F331F0A94E2F7422B4083EE8949
:10045000FF8940819C010D8C02C0220F331F0A943A
:10046000E2F7422B4083EE89FF8940819C010E8C8C
:1004700002C0220F331F0A94E2F7422B4083EE8919
:10048000FF8920810F8C02C0880F991F0A94E2F720
:10049000809582238083DF91CF91FF90EF90DF9052
:1004A000CF90089510922D0110922C0188EE93E0C8
:1004B000A0E0B0E080932E0190932F01A093300133
:1004C000B09331018EE191E090932B0180932A014A
:1004D00080E991E090933701809336018CE491E0BC
:1004E000909339018093380185EC90E090933B0123
:1004F00080933A0184EC90E090933D0180933C011D
:1005000080EC90E090933F0180933E0181EC90E07D
:10051000909341018093400182EC90E090934301DD
:100520008093420186EC90E09093450180934401D2
:1005300084E08093460183E08093470187E08093C5
:10054000480185E08093490181E080934A01089544
:10055000B4D1D9DDC1E9D1E0E6DD2097E9F3E1DEF0
:10056000FBCFCF92DF92EF92FF920F931F93CF9327
:10057000DF936C017A01EB01E60EF71E00E010E05C
:10058000CE15DF0561F06991D601ED91FC910190E6
:10059000F081E02DC6010995080F191FF1CFC801A0
:1005A000DF91CF911F910F91FF90EF90DF90CF904F
:1005B00008956115710581F0DB010D900020E9F7C8
:1005C000AD0141505109461B570BDC01ED91FC91E7
:1005D0000280F381E02D099480E090E00895DC0131
:1005E000ED91FC910190F081E02D09940F931F9300
:1005F000CF93DF93EC016DE0F2DF8C016AE0CE0176
:10060000EEDF800F911FDF91CF911F910F91089521
:100610000F931F93CF93DF93EC01CBDF8C01CE01BF
:10062000E5DF800F911FDF91CF911F910F9108950A
:100630008F929F92AF92BF92CF92DF92EF92FF92F2
:100640000F931F93CF93DF93CDB7DEB7A1970FB66C
:10065000F894DEBF0FBECDBF7C01C42EE52FCB01C9
:10066000D22E19A221E02D1510F02AE0D22E8E01F3
:100670000F5D1F4F8D2C912CA12CB12C6C2D7E2F3A
:10068000A501940128D28C2DD29E801911240150ED
:1006900011098A3014F4805D01C0895CF8018083FF
:1006A000211531054105510521F0C22EE32FCA0164
:1006B000E5CFB801C7017DDFA1960FB6F894DEBF84
:1006C0000FBECDBFDF91CF911F910F91FF90EF90A3
:1006D000DF90CF90BF90AF909F908F900895CF9272
:1006E000DF92EF92FF920F931F93CF93DF93EC0172
:1006F0006A017B012115310579F4E881F9810190C6
:10070000F081E02D642FDF91CF911F910F91FF9029
:10071000EF90DF90CF9009942A303105D9F477FF1C
:1007200018C06DE25CDF8C0144275527BA014C19D3
:100730005D096E097F092AE0CE017ADF800F911FE3
:10074000DF91CF911F910F91FF90EF90DF90CF90AD
:1007500008952AE0B701A601CE01DF91CF911F9144
:100760000F91FF90EF90DF90CF9062CF0F931F9388
:10077000CF93DF93EC019A01AB01662757FD60959B
:10078000762FADDF8C01CE0131DF800F911FDF911D
:10079000CF911F910F9108951F920F920FB60F9254
:1007A00011242F933F938F939F93AF93BF93809187
:1007B000D5019091D601A091D701B091D801309187
:1007C000D40123E0230F2D3720F40196A11DB11D84
:1007D00005C026E8230F0296A11DB11D2093D40168
:1007E0008093D5019093D601A093D701B093D801FF
:1007F0008091D9019091DA01A091DB01B091DC01E7
:100800000196A11DB11D8093D9019093DA01A093A7
:10081000DB01B093DC01BF91AF919F918F913F912C
:100820002F910F900FBE0F901F9018953FB7F8941F
:100830008091D9019091DA01A091DB01B091DC01A6
:1008400026B5A89B05C02F3F19F00196A11DB11D2B
:100850003FBF6627782F892F9A2F620F711D811D48
:10086000911D42E0660F771F881F991F4A95D1F7A7
:100870000895CF92DF92EF92FF92CF93DF936B01B7
:100880007C01D4DFEB01C114D104E104F10471F067
:10089000CDDF6C1B7D0B683E7340A8F381E0C81A66
:1008A000D108E108F108C851DC4FEDCFDF91CF91BD
:1008B000FF90EF90DF90CF900895789484B5826098
:1008C00084BD84B5816084BD85B5826085BD85B5F4
:1008D000816085BDEEE6F0E0808181608083E1E8A3
:1008E000F0E01082808182608083808181608083DB
:1008F000E0E8F0E0808181608083E1EBF0E08081DE
:1009000084608083E0EBF0E0808181608083EAE7AF
:10091000F0E0808184608083808182608083808138
:10092000816080838081806880831092C1000895F7
:10093000833081F028F4813099F08230A1F008955D
:100940008630A9F08730B9F08430D1F480918000EE
:100950008F7D03C0809180008F7780938000089501
:1009600084B58F7702C084B58F7D84BD0895809152
:10097000B0008F7703C08091B0008F7D8093B0006E
:100980000895CF93DF9390E0FC01E458FF4F24914A
:10099000FC01E057FF4F8491882349F190E0880FD4
:1009A000991FFC01E255FF4FA591B4918C559F4FC3
:1009B000FC01C591D4919FB7611108C0F8948C9146
:1009C000209582238C93888182230AC0623051F45F
:1009D000F8948C91322F309583238C938881822BCD
:1009E000888304C0F8948C91822B8C939FBFDF91F5
:1009F000CF9108950F931F93CF93DF931F92CDB79D
:100A0000DEB7282F30E0F901E859FF4F8491F90152
:100A1000E458FF4F1491F901E057FF4F0491002370
:100A2000C1F0882319F0698383DF6981E02FF0E04A
:100A3000EE0FFF1FEC55FF4FA591B4919FB7F894AF
:100A40008C91611103C01095812301C0812B8C937F
:100A50009FBF0F90DF91CF911F910F910895BF928B
:100A6000CF92DF92EF92FF920F931F93CF93DF937A
:100A7000C82ED62EB42EC7E0D0E0022F10E087E0BB
:100A8000E82EF12CB1100AC0F701EC1BFD0BB801E8
:100A900002C075956795EA95E2F707C0B8010C2E7C
:100AA00002C0759567950A94E2F7617077278C2DDF
:100AB000A1DF61E08D2D9EDF60E08D2D9BDF219712
:100AC00008F7DF91CF911F910F91FF90EF90DF908A
:100AD000CF90BF900895A1E21A2EAA1BBB1BFD0167
:100AE0000DC0AA1FBB1FEE1FFF1FA217B307E4070D
:100AF000F50720F0A21BB30BE40BF50B661F771F65
:100B0000881F991F1A9469F7609570958095909544
:100B10009B01AC01BD01CF010895EE0FFF1F0590B1
:0A0B2000F491E02D0994F894FFCF42
:100B2A000000DD0120004C6F6F7020626567696EFE
:100B3A00004C6F6F7020656E6400000000001901A0
:0A0B4A00B102BF00EC00D1000E0163
:00000001FF
